:020000020000FC
:100000000FEF07BBA79AA69A00E401BB0FE002BB63
:100010000FE402BB41E00FE50DBF04E00EBF00B3EB
:100020000F70AE9808BA0E943900AE9AAF9818BA0D
:100030000E943900AF9A879BF2CF0E942A009698BF
:10004000969AEDCF014F12064C24600F000C080069
:10005000310130389FB79F932F93102CF0E0E4E4E8
:1000600020E0E00FF21F0491002E2F919F919FBF7F
:10007000089519E11A950000E9F70A95D9F708954E
:00000001FF
