:020000020000FC
:0200000012C02C
:0200080033C003
:1000240022C00FEF07BB00E008BBA79AA69A01E025
:1000340001BB9098909A00E40ABB0FEF0BBB41E020
:1000440001E0200E0FE50DBF04E00EBF0CE005BF7C
:1000540000E80BBF02E003BF01E008BF01E009BFF5
:1000640078940000FECF0E945B0018950F930FB7A1
:100074000F9309B30F700E944D009098909A0F91BE
:100084000FBF0F911895014F12064C24600F000CFE
:100094000800310130382F93F0E0EAE820E0E00F67
:1000A400F21F04910E9458002F910895102C002EE5
:1000B40008950F930FB70F932F932394222D21703C
:1000C40020FD0E946D0020FF0E9471002F910F916E
:1000D4000FBF0F91089508BAAF98AE9A089518BA51
:0600E400AE98AF9A0895EA
:00000001FF
