:020000020000FC
:0200000004C03A
:100008001DC00FEF07BB00E008BBA79AA69A01E046
:1000180001BB9098909A00E40ABB0FEF0BBB41E03C
:1000280001E0200E0FE50DBF04E00EBF0CE005BF98
:1000380000E80BBF78940E944500FDCF0F930FB7DF
:100048000F9309B30F700E9437009098909A0F9100
:100058000FBF0F911895014F12064C24600F000C2A
:100068000800310130382F93F0E0EEE520E0E00F92
:10007800F21F04910E9442002F910895102C002E27
:1000880008950F930FB70F932F93AF932394222DB7
:10009800217020FD0E94590020FF0E946000AF914E
:1000A8002F910F910FBF0F91089508BAAF98AE9A8C
:1000B80004E60E946700089518BAAE98AF9A04E65D
:1000C8000E9467000895A0E2AA95F1F70A95D9F76A
:0200D800089589
:00000001FF
